:100000000C94B9000C94D6000C94D6000C94D60035
:100010000C94D6000C94D6000C94D6000C94D60008
:100020000C94D6000C94D6000C94D6000C94D600F8
:100030000C94D6000C94D6000C94D6000C94D600E8
:100040000C94D6000C94D6000C94D6000C94D600D8
:100050000C94D6000B02180226023402420250020F
:100060005E027602C30212036103B003FF034E0473
:100070009D04ED04FB26FB26FB26FB26FB26FB2628
:10008000FB26FB26FB26FB26FB26FB26FB26FB2668
:10009000FB26FB26FB26FB26FB26FB26FB26FB2658
:1000A000FB26FB26FB26FB26FB26FB26FB26FB2648
:1000B000FB264A05FB26FB26FB26A705050663064D
:1000C000C1061F077D07DB0739089708F5085309A4
:1000D000B1090F0A6D0ACB0A290B870BE50B430CFC
:1000E000A10CFF0C5D0DBB0DFB26190E770ED50E76
:1000F000330F910FEF0F4D10AB1009116711C511A0
:1001000023128112DF123D139B13F9135714B514F8
:1001100013157115CF152D168B16E9164717A51750
:1001200003186118BF181D197B19D919371A951AA8
:10013000F31A511BAF1B0D1C6B1CC91C271D851D01
:10014000E31D411E9F1EFD1E5A1FB71F1420712064
:10015000CE202B218821E52142229F22FC225923F7
:10016000B62313247024CD242A258725E42541268F
:100170009E2611241FBECFE5D8E0DEBFCDBF10E024
:10018000A0E6B0E0E2E3F4E502C005900D92AC3FDA
:10019000B107D9F721E0ACEFB0E001C01D92A33266
:1001A000B207E1F70E9440290C94172A0C94000032
:1001B000E0E6F0E083EE90E01192E817F907E1F74E
:1001C0000895969A949A85E18A95F1F7000095989A
:1001D00085E18A95F1F70000E7EEF0E02BEE30E0E4
:1001E00094988191882311F0969A01C096988AE09C
:1001F0008A95F1F700C0949A8AE08A95F1F700C0D9
:100200009498E217F30761F7E6E1F1E02EE131E0BF
:1002100094988191882311F0969A01C096988AE06B
:100220008A95F1F700C0949A8AE08A95F1F700C0A8
:100230009498E217F30761F796989498959A8AE054
:100240008A95F1F700C00895FF920F931F93CF9303
:10025000DF938C9A8E9A8D9A94989698959A2FEF10
:1002600080E792E0215080409040E1F700C000001C
:1002700007EE10E0FF24F394F801F082118212825D
:10028000C6E1D1E01882F9821A82FB821C821D82AB
:100290001E821F820E94E100F801F0821182128208
:1002A000188219821A821B82FC82FD821E821F82A2
:1002B0000E94E100F801F0821182128218821982F4
:1002C0001A821B821C821D821E821F820E94E100F4
:1002D000F801F08211821282188219821A821B821E
:1002E000FC821D82FE821F820E94E100F801F082E2
:1002F00011821282188219821A821B821C821D822C
:10030000FE821F820E94E100F801F08211821282B7
:10031000188219821A821B821C82FD82FE821F8231
:100320000E94E100DF91CF911F910F91FF900895FE
:10033000969A949A85E18A95F1F70000959885E15F
:100340008A95F1F70000E7EEF0E081E0808311820A
:1003500082832BEE30E094988191882311F0969A55
:1003600001C096988AE08A95F1F700C0949A8AE0D5
:100370008A95F1F700C094982E173F0761F7EEE1D8
:10038000F1E023E231E094988191882311F0969A6C
:1003900001C096988AE08A95F1F700C0949A8AE0A5
:1003A0008A95F1F700C094982E173F0761F7E0E6B1
:1003B000F0E020EE30E094988191882311F0969A35
:1003C00001C096988AE08A95F1F700C0949A8AE075
:1003D0008A95F1F700C09498E217F30761F79698B1
:1003E0009498959A8AE08A95F1F700C00895E0E61E
:1003F000F0E083EE90E01192E817F907E1F70E9430
:10040000980108958730910508F065C0FC01E65D0C
:10041000FF4F0C94DB291092DB001092DA0010924F
:10042000D9001092D8001092DC001092DD000895DF
:1004300081E08093DB001092DA001092D9001092D4
:10044000D8001092DC001092DD00089581E08093C6
:10045000DB008093DA001092D9001092D80010923D
:10046000DC001092DD00089581E08093DB00809332
:10047000DA008093D9001092D8001092DC0010921C
:10048000DD00089581E08093DB008093DA008093A3
:10049000D9008093D8001092DC001092DD000895FE
:1004A00081E08093DB008093DA008093D900809311
:1004B000D8008093DC001092DD00089581E08093E5
:1004C000DB008093DA008093D9008093D80080937A
:1004D000DC008093DD00089501978830910508F0D5
:1004E00070C28F5C9F4FFC010C94DB2984E090E08C
:1004F00090931501809314018CE090E09093130188
:10050000809312018BE090E0909311018093100191
:1005100087E090E090930F0180930E0183E090E0DC
:1005200090930D0180930C0110920B0110920A011F
:1005300082E090E0909309018093080189E090E0C7
:10054000909307018093060185E090E09093050168
:100550008093040188E090E090930301809302016E
:1005600081E090E090930101809300018AE090E0A7
:100570009093FF008093FE0086E090E09093FD0052
:100580008093FC001EC284E190E09093150180935B
:1005900014018CE190E090931301809312018BE1A0
:1005A00090E0909311018093100187E190E0909387
:1005B0000F0180930E0183E190E090930D018093F1
:1005C0000C0180E190E090930B0180930A0182E19D
:1005D00090E0909309018093080189E190E0909365
:1005E00007018093060185E190E0909305018093D7
:1005F000040188E190E0909303018093020181E17E
:1006000090E090930101809300018AE190E0909343
:10061000FF008093FE0086E190E09093FD008093C0
:10062000FC00CFC184E290E0909315018093140107
:100630008CE290E090931301809312018BE290E0A2
:10064000909311018093100187E290E090930F0145
:1006500080930E0183E290E090930D0180930C0152
:1006600080E290E090930B0180930A0182E290E097
:10067000909309018093080189E290E0909307012B
:100680008093060185E290E0909305018093040138
:1006900088E290E0909303018093020181E290E070
:1006A00090930101809300018AE290E09093FF0013
:1006B0008093FE0086E290E09093FD008093FC0022
:1006C00080C184E390E090931501809314018CE342
:1006D00090E090931301809312018BE390E090934C
:1006E00011018093100187E390E090930F018093B4
:1006F0000E0183E390E090930D0180930C0180E361
:1007000090E090930B0180930A0182E390E0909334
:1007100009018093080189E390E090930701809399
:10072000060185E390E0909305018093040188E33E
:1007300090E0909303018093020181E390E0909315
:100740000101809300018AE390E09093FF00809381
:10075000FE0086E390E09093FD008093FC0031C1A1
:1007600084E490E090931501809314018CE490E070
:1007700090931301809312018BE490E09093110108
:100780008093100187E490E090930F0180930E0115
:1007900083E490E090930D0180930C0180E490E05D
:1007A00090930B0180930A0182E490E090930901F9
:1007B0008093080189E490E09093070180930601FB
:1007C00085E490E0909305018093040188E490E033
:1007D000909303018093020181E490E090930101E2
:1007E000809300018AE490E09093FF008093FE00E4
:1007F00086E490E09093FD008093FC00E2C084E5E5
:1008000090E090931501809314018CE590E0909313
:100810001301809312018BE590E090931101809376
:10082000100187E590E090930F0180930E0183E51E
:1008300090E090930D0180930C0180E590E09093FF
:100840000B0180930A0182E590E090930901809367
:10085000080189E590E0909307018093060185E502
:1008600090E0909305018093040188E590E09093D7
:1008700003018093020181E590E090930101809350
:1008800000018AE590E09093FF008093FE0086E5EA
:1008900090E09093FD008093FC0093C084E690E08C
:1008A00090931501809314018CE690E090931301CE
:1008B000809312018BE690E09093110180931001D8
:1008C00087E690E090930F0180930E0183E690E01D
:1008D00090930D0180930C0180E690E090930B01C2
:1008E00080930A0182E690E09093090180930801C9
:1008F00089E690E0909307018093060185E690E0F9
:10090000909305018093040188E690E090930301A1
:100910008093020181E690E09093010180930001B1
:100920008AE690E09093FF008093FE0086E690E0D8
:100930009093FD008093FC0044C084E790E0909386
:1009400015018093140185E790E090931301809343
:10095000120186E790E0909311018093100183E7E4
:1009600090E090930F0180930E0182E790E09093C6
:100970000D0180930C0180E790E090930B01809330
:100980000A0181E790E090930901809308018FE6C6
:1009900090E0909307018093060190930501809366
:1009A00004019093030180930201909301018093CD
:1009B00000019093FF008093FE009093FD008093D0
:1009C000FC00862F90E08038910510F00C94FB26F7
:1009D000FC01E75CFF4F0C94DB29E0911401F091DE
:1009E0001501E05AFF4F1082E0911201F0911301BE
:1009F000E05AFF4F1082E0911001F0911101E05A8E
:100A0000FF4F1082E0910E01F0910F01E05AFF4F6D
:100A10001082E0910C01F0910D01E05AFF4F10821D
:100A2000E0910A01F0910B01E05AFF4F1082E09132
:100A30000801F0910901E05AFF4F1082E091060190
:100A4000F0910701E05AFF4F1082E0910401F0910C
:100A50000501E05AFF4F1082E0910201F09103017D
:100A6000E05AFF4F1082E0910001F0910101E05A3D
:100A7000FF4F1082E091FE00F091FF00E05AFF4F1F
:100A80001082E091FC00F091FD00E05AFF4F1082CF
:100A90000C945627E0911401F0911501E05AFF4F94
:100AA0001082E0911201F0911301E05AFF4F108281
:100AB000E0911001F0911101E05AFF4F1082E09196
:100AC0000E01F0910F01E05AFF4F1082E0910C01EE
:100AD000F0910D01E05AFF4F1082E0910A01F09170
:100AE0000B01E05AFF4F1082E0910801F0910901DB
:100AF000E05AFF4F1082E0910601F0910701E05AA1
:100B0000FF4F1082E0910401F0910501E05AFF4F80
:100B10001082E0910201F0910301E05AFF4F108230
:100B2000E0910001F0910101E05AFF4F1082E09145
:100B3000FE00F091FF00E05AFF4F1082E091FC00B0
:100B4000F091FD00E05AFF4F10820C945627E0917F
:100B50001401F0911501E05AFF4F81E08083E0918C
:100B60001201F0911301E05AFF4F1082E091100141
:100B7000F0911101E05AFF4F8083E0910E01F09156
:100B80000F01E05AFF4F8083E0910C01F0910D01BD
:100B9000E05AFF4F1082E0910A01F0910B01E05AF8
:100BA000FF4F8083E0910801F0910901E05AFF4F67
:100BB0008083E0910601F0910701E05AFF4F8083A6
:100BC000E0910401F0910501E05AFF4F8083E0912C
:100BD0000201F0910301E05AFF4F1082E091000101
:100BE000F0910101E05AFF4F1082E091FE00F09178
:100BF000FF00E05AFF4F1082E091FC00F091FD00F1
:100C0000E05AFF4F10820C945627E0911401F091A6
:100C10001501E05AFF4F1082E0911201F09113018B
:100C2000E05AFF4F1082E0911001F0911101E05A5B
:100C3000FF4F81E08083E0910E01F0910F01E05AB7
:100C4000FF4F1082E0910C01F0910D01E05AFF4F2F
:100C50001082E0910A01F0910B01E05AFF4F80836E
:100C6000E0910801F0910901E05AFF4F1082E091F4
:100C70000601F0910701E05AFF4F1082E091040154
:100C8000F0910501E05AFF4F1082E0910201F091CE
:100C90000301E05AFF4F8083E0910001F0910101D0
:100CA000E05AFF4F1082E091FE00F091FF00E05A01
:100CB000FF4F1082E091FC00F091FD00E05AFF4FE1
:100CC00080830C945627E0911401F0911501E05AAD
:100CD000FF4F81E08083E0911201F0911301E05A0F
:100CE000FF4F1082E0911001F0911101E05AFF4F87
:100CF0001082E0910E01F0910F01E05AFF4F8083C6
:100D0000E0910C01F0910D01E05AFF4F8083E091DA
:100D10000A01F0910B01E05AFF4F1082E0910801A7
:100D2000F0910901E05AFF4F8083E0910601F091B4
:100D30000701E05AFF4F1082E0910401F091050194
:100D4000E05AFF4F1082E0910201F0910301E05A56
:100D5000FF4F8083E0910001F0910101E05AFF4FC5
:100D60008083E091FE00F091FF00E05AFF4F808306
:100D7000E091FC00F091FD00E05AFF4F10820C94CE
:100D80005627E0911401F0911501E05AFF4F1082AF
:100D9000E0911201F0911301E05AFF4F1082E091AF
:100DA0001001F0911101E05AFF4F1082E0910E0105
:100DB000F0910F01E05AFF4F1082E0910C01F09189
:100DC0000D01E05AFF4F1082E0910A01F0910B01F2
:100DD000E05AFF4F1082E0910801F0910901E05ABA
:100DE000FF4F1082E0910601F0910701E05AFF4F9A
:100DF0001082E0910401F0910501E05AFF4F10824A
:100E0000E0910201F0910301E05AFF4F1082E0915E
:100E10000001F0910101E05AFF4F81E08083E091F1
:100E2000FE00F091FF00E05AFF4F1082E091FC00BD
:100E3000F091FD00E05AFF4F10820C945627E0918C
:100E40001401F0911501E05AFF4F81E08083E09199
:100E50001201F0911301E05AFF4F1082E09110014E
:100E6000F0911101E05AFF4F1082E0910E01F091D4
:100E70000F01E05AFF4F8083E0910C01F0910D01CA
:100E8000E05AFF4F8083E0910A01F0910B01E05A94
:100E9000FF4F8083E0910801F0910901E05AFF4F74
:100EA0001082E0910601F0910701E05AFF4F108295
:100EB000E0910401F0910501E05AFF4F1082E091AA
:100EC0000201F0910301E05AFF4F1082E09100010E
:100ED000F0910101E05AFF4F1082E091FE00F09185
:100EE000FF00E05AFF4F1082E091FC00F091FD00FE
:100EF000E05AFF4F10820C945627E0911401F091B4
:100F00001501E05AFF4F81E08083E0911201F091DA
:100F10001301E05AFF4F8083E0911001F09111011D
:100F2000E05AFF4F8083E0910E01F0910F01E05AEB
:100F3000FF4F8083E0910C01F0910D01E05AFF4FCB
:100F40001082E0910A01F0910B01E05AFF4F1082EC
:100F5000E0910801F0910901E05AFF4F1082E09101
:100F60000601F0910701E05AFF4F1082E091040161
:100F7000F0910501E05AFF4F1082E0910201F091DB
:100F80000301E05AFF4F1082E0910001F09101014E
:100F9000E05AFF4F1082E091FE00F091FF00E05A0E
:100FA000FF4F1082E091FC00F091FD00E05AFF4FEE
:100FB00010820C945627E0911401F0911501E05A2B
:100FC000FF4F1082E0911201F0911301E05AFF4FA0
:100FD0001082E0911001F0911101E05AFF4F108250
:100FE000E0910E01F0910F01E05AFF4F1082E09165
:100FF0000C01F0910D01E05AFF4F1082E0910A01BF
:10100000F0910B01E05AFF4F1082E0910801F0913E
:101010000901E05AFF4F81E08083E0910601F091E1
:101020000701E05AFF4F8083E0910401F091050130
:10103000E05AFF4F8083E0910201F0910301E05AF2
:10104000FF4F8083E0910001F0910101E05AFF4FD2
:101050008083E091FE00F091FF00E05AFF4F808313
:10106000E091FC00F091FD00E05AFF4F80830C946A
:101070005627E0911401F0911501E05AFF4F1082BC
:10108000E0911201F0911301E05AFF4F1082E091BC
:101090001001F0911101E05AFF4F1082E0910E0112
:1010A000F0910F01E05AFF4F1082E0910C01F09196
:1010B0000D01E05AFF4F1082E0910A01F0910B01FF
:1010C000E05AFF4F1082E0910801F0910901E05AC7
:1010D000FF4F81E08083E0910601F0910701E05A23
:1010E000FF4F8083E0910401F0910501E05AFF4F2A
:1010F0008083E0910201F0910301E05AFF4F1082DA
:10110000E0910001F0910101E05AFF4F1082E0915F
:10111000FE00F091FF00E05AFF4F1082E091FC00CA
:10112000F091FD00E05AFF4F10820C945627E09199
:101130001401F0911501E05AFF4F1082E091120165
:10114000F0911301E05AFF4F1082E0911001F091ED
:101150001101E05AFF4F1082E0910E01F0910F0152
:10116000E05AFF4F1082E0910C01F0910D01E05A1E
:10117000FF4F1082E0910A01F0910B01E05AFF4FFE
:101180001082E0910801F0910901E05AFF4F1082AE
:10119000E0910601F0910701E05AFF4F1082E091C3
:1011A0000401F0910501E05AFF4F1082E091020125
:1011B000F0910301E05AFF4F1082E0910001F0919D
:1011C0000101E05AFF4F1082E091FE00F091FF0014
:1011D000E05AFF4F1082E091FC00F091FD00E05AD0
:1011E000FF4F81E080830C945627E0911401F09129
:1011F0001501E05AFF4F1082E0911201F0911301A6
:10120000E05AFF4F1082E0911001F0911101E05A75
:10121000FF4F1082E0910E01F0910F01E05AFF4F55
:101220001082E0910C01F0910D01E05AFF4F108205
:10123000E0910A01F0910B01E05AFF4F1082E0911A
:101240000801F0910901E05AFF4F81E08083E091AD
:101250000601F0910701E05AFF4F8083E0910401FD
:10126000F0910501E05AFF4F1082E0910201F091E8
:101270000301E05AFF4F1082E0910001F09101015B
:10128000E05AFF4F1082E091FE00F091FF00E05A1B
:10129000FF4F1082E091FC00F091FD00E05AFF4FFB
:1012A00010820C945627E0911401F0911501E05A38
:1012B000FF4F1082E0911201F0911301E05AFF4FAD
:1012C0001082E0911001F0911101E05AFF4F10825D
:1012D000E0910E01F0910F01E05AFF4F1082E09172
:1012E0000C01F0910D01E05AFF4F1082E0910A01CC
:1012F000F0910B01E05AFF4F1082E0910801F0914C
:101300000901E05AFF4F1082E0910601F0910701B8
:10131000E05AFF4F1082E0910401F0910501E05A7C
:10132000FF4F1082E0910201F0910301E05AFF4F5C
:101330001082E0910001F0910101E05AFF4F10820C
:10134000E091FE00F091FF00E05AFF4F81E08083C2
:10135000E091FC00F091FD00E05AFF4F10820C94E8
:101360005627E0911401F0911501E05AFF4F1082C9
:10137000E0911201F0911301E05AFF4F1082E091C9
:101380001001F0911101E05AFF4F1082E0910E011F
:10139000F0910F01E05AFF4F1082E0910C01F091A3
:1013A0000D01E05AFF4F1082E0910A01F0910B010C
:1013B000E05AFF4F1082E0910801F0910901E05AD4
:1013C000FF4F1082E0910601F0910701E05AFF4FB4
:1013D0001082E0910401F0910501E05AFF4F108264
:1013E000E0910201F0910301E05AFF4F81E0808318
:1013F000E0910001F0910101E05AFF4F1082E0916D
:10140000FE00F091FF00E05AFF4F1082E091FC00D7
:10141000F091FD00E05AFF4F80830C945627E09135
:101420001401F0911501E05AFF4F81E08083E091B3
:101430001201F0911301E05AFF4F8083E0911001F7
:10144000F0911101E05AFF4F8083E0910E01F0917D
:101450000F01E05AFF4F8083E0910C01F0910D01E4
:10146000E05AFF4F8083E0910A01F0910B01E05AAE
:10147000FF4F8083E0910801F0910901E05AFF4F8E
:101480001082E0910601F0910701E05AFF4F1082AF
:10149000E0910401F0910501E05AFF4F1082E091C4
:1014A0000201F0910301E05AFF4F8083E0910001B7
:1014B000F0910101E05AFF4F1082E091FE00F0919F
:1014C000FF00E05AFF4F1082E091FC00F091FD0018
:1014D000E05AFF4F80830C945627E0911401F0915D
:1014E0001501E05AFF4F1082E0911201F0911301B3
:1014F000E05AFF4F81E08083E0911001F0911101EB
:10150000E05AFF4F8083E0910E01F0910F01E05A05
:10151000FF4F1082E0910C01F0910D01E05AFF4F56
:101520001082E0910A01F0910B01E05AFF4F108206
:10153000E0910801F0910901E05AFF4F1082E0911B
:101540000601F0910701E05AFF4F1082E09104017B
:10155000F0910501E05AFF4F1082E0910201F091F5
:101560000301E05AFF4F8083E0910001F0910101F7
:10157000E05AFF4F1082E091FE00F091FF00E05A28
:10158000FF4F1082E091FC00F091FD00E05AFF4F08
:1015900010820C945627E0911401F0911501E05A45
:1015A000FF4F81E08083E0911201F0911301E05A36
:1015B000FF4F8083E0911001F0911101E05AFF4F3D
:1015C0001082E0910E01F0910F01E05AFF4F8083ED
:1015D000E0910C01F0910D01E05AFF4F8083E09102
:1015E0000A01F0910B01E05AFF4F1082E0910801CF
:1015F000F0910901E05AFF4F8083E0910601F091DC
:101600000701E05AFF4F8083E0910401F09105014A
:10161000E05AFF4F1082E0910201F0910301E05A7D
:10162000FF4F1082E0910001F0910101E05AFF4F5D
:101630001082E091FE00F091FF00E05AFF4F10820F
:10164000E091FC00F091FD00E05AFF4F10820C94F5
:101650005627E0911401F0911501E05AFF4F81E007
:101660008083E0911201F0911301E05AFF4F8083D3
:10167000E0911001F0911101E05AFF4F8083E09159
:101680000E01F0910F01E05AFF4F8083E0910C01B1
:10169000F0910D01E05AFF4F1082E0910A01F091A4
:1016A0000B01E05AFF4F1082E0910801F09109010F
:1016B000E05AFF4F8083E0910601F0910701E05A64
:1016C000FF4F8083E0910401F0910501E05AFF4F44
:1016D0001082E0910201F0910301E05AFF4F108265
:1016E000E0910001F0910101E05AFF4F1082E0917A
:1016F000FE00F091FF00E05AFF4F1082E091FC00E5
:10170000F091FD00E05AFF4F10820C945627E091B3
:101710001401F0911501E05AFF4F1082E09112017F
:10172000F0911301E05AFF4F81E08083E0911001B6
:10173000F0911101E05AFF4F8083E0910E01F0918A
:101740000F01E05AFF4F1082E0910C01F0910D0162
:10175000E05AFF4F1082E0910A01F0910B01E05A2C
:10176000FF4F8083E0910801F0910901E05AFF4F9B
:101770008083E0910601F0910701E05AFF4F8083DA
:10178000E0910401F0910501E05AFF4F1082E091D1
:101790000201F0910301E05AFF4F1082E091000135
:1017A000F0910101E05AFF4F1082E091FE00F091AC
:1017B000FF00E05AFF4F1082E091FC00F091FD0025
:1017C000E05AFF4F10820C945627E0911401F091DB
:1017D0001501E05AFF4F81E08083E0911201F09102
:1017E0001301E05AFF4F1082E0911001F0911101B6
:1017F000E05AFF4F8083E0910E01F0910F01E05A13
:10180000FF4F8083E0910C01F0910D01E05AFF4FF2
:101810001082E0910A01F0910B01E05AFF4F8083A2
:10182000E0910801F0910901E05AFF4F8083E091B7
:101830000601F0910701E05AFF4F8083E091040117
:10184000F0910501E05AFF4F1082E0910201F09102
:101850000301E05AFF4F1082E0910001F091010175
:10186000E05AFF4F1082E091FE00F091FF00E05A35
:10187000FF4F1082E091FC00F091FD00E05AFF4F15
:1018800010820C945627E0911401F0911501E05A52
:10189000FF4F81E08083E0911201F0911301E05A43
:1018A000FF4F1082E0911001F0911101E05AFF4FBB
:1018B0008083E0910E01F0910F01E05AFF4F808389
:1018C000E0910C01F0910D01E05AFF4F8083E0910F
:1018D0000A01F0910B01E05AFF4F8083E09108016B
:1018E000F0910901E05AFF4F8083E0910601F091E9
:1018F0000701E05AFF4F8083E0910401F091050158
:10190000E05AFF4F1082E0910201F0910301E05A8A
:10191000FF4F1082E0910001F0910101E05AFF4F6A
:101920001082E091FE00F091FF00E05AFF4F10821C
:10193000E091FC00F091FD00E05AFF4F10820C9402
:101940005627E0911401F0911501E05AFF4F81E014
:101950008083E0911201F0911301E05AFF4F8083E0
:10196000E0911001F0911101E05AFF4F8083E09166
:101970000E01F0910F01E05AFF4F1082E0910C012F
:10198000F0910D01E05AFF4F1082E0910A01F091B1
:101990000B01E05AFF4F1082E0910801F09109011C
:1019A000E05AFF4F1082E0910601F0910701E05AE2
:1019B000FF4F1082E0910401F0910501E05AFF4FC2
:1019C0001082E0910201F0910301E05AFF4F108272
:1019D000E0910001F0910101E05AFF4F1082E09187
:1019E000FE00F091FF00E05AFF4F1082E091FC00F2
:1019F000F091FD00E05AFF4F10820C945627E091C1
:101A00001401F0911501E05AFF4F81E08083E091CD
:101A10001201F0911301E05AFF4F8083E091100111
:101A2000F0911101E05AFF4F8083E0910E01F09197
:101A30000F01E05AFF4F8083E0910C01F0910D01FE
:101A4000E05AFF4F8083E0910A01F0910B01E05AC8
:101A5000FF4F8083E0910801F0910901E05AFF4FA8
:101A60008083E0910601F0910701E05AFF4F8083E7
:101A7000E0910401F0910501E05AFF4F1082E091DE
:101A80000201F0910301E05AFF4F1082E091000142
:101A9000F0910101E05AFF4F1082E091FE00F091B9
:101AA000FF00E05AFF4F1082E091FC00F091FD0032
:101AB000E05AFF4F10820C945627E0911401F091E8
:101AC0001501E05AFF4F81E08083E0911201F0910F
:101AD0001301E05AFF4F8083E0911001F091110152
:101AE000E05AFF4F8083E0910E01F0910F01E05A20
:101AF000FF4F8083E0910C01F0910D01E05AFF4F00
:101B00001082E0910A01F0910B01E05AFF4F8083AF
:101B1000E0910801F0910901E05AFF4F8083E091C4
:101B20000601F0910701E05AFF4F8083E091040124
:101B3000F0910501E05AFF4F1082E0910201F0910F
:101B40000301E05AFF4F1082E0910001F091010182
:101B5000E05AFF4F1082E091FE00F091FF00E05A42
:101B6000FF4F1082E091FC00F091FD00E05AFF4F22
:101B700010820C945627E0911401F0911501E05A5F
:101B8000FF4F1082E0911201F0911301E05AFF4FD4
:101B90001082E0911001F0911101E05AFF4F108284
:101BA000E0910E01F0910F01E05AFF4F1082E09199
:101BB0000C01F0910D01E05AFF4F1082E0910A01F3
:101BC000F0910B01E05AFF4F1082E0910801F09173
:101BD0000901E05AFF4F1082E0910601F0910701E0
:101BE000E05AFF4F1082E0910401F0910501E05AA4
:101BF000FF4F81E08083E0910201F0910301E05A00
:101C0000FF4F1082E0910001F0910101E05AFF4F77
:101C10001082E091FE00F091FF00E05AFF4F108229
:101C2000E091FC00F091FD00E05AFF4F10820C940F
:101C30005627E0911401F0911501E05AFF4F1082F0
:101C4000E0911201F0911301E05AFF4F1082E091F0
:101C50001001F0911101E05AFF4F1082E0910E0146
:101C6000F0910F01E05AFF4F1082E0910C01F091CA
:101C70000D01E05AFF4F1082E0910A01F0910B0133
:101C8000E05AFF4F1082E0910801F0910901E05AFB
:101C9000FF4F1082E0910601F0910701E05AFF4FDB
:101CA0001082E0910401F0910501E05AFF4F10828B
:101CB000E0910201F0910301E05AFF4F81E080833F
:101CC000E0910001F0910101E05AFF4F1082E09194
:101CD000FE00F091FF00E05AFF4F8083E091FC008E
:101CE000F091FD00E05AFF4F10820C945627E091CE
:101CF0001401F0911501E05AFF4F1082E09112019A
:101D0000F0911301E05AFF4F1082E0911001F09121
:101D10001101E05AFF4F1082E0910E01F0910F0186
:101D2000E05AFF4F81E08083E0910C01F0910D01BA
:101D3000E05AFF4F1082E0910A01F0910B01E05A46
:101D4000FF4F1082E0910801F0910901E05AFF4F26
:101D50008083E0910601F0910701E05AFF4F8083F4
:101D6000E0910401F0910501E05AFF4F1082E091EB
:101D70000201F0910301E05AFF4F1082E09100014F
:101D8000F0910101E05AFF4F1082E091FE00F091C6
:101D9000FF00E05AFF4F1082E091FC00F091FD003F
:101DA000E05AFF4F10820C945627E0911401F091F5
:101DB0001501E05AFF4F1082E0911201F0911301DA
:101DC000E05AFF4F1082E0911001F0911101E05AAA
:101DD000FF4F1082E0910E01F0910F01E05AFF4F8A
:101DE0001082E0910C01F0910D01E05AFF4F10823A
:101DF000E0910A01F0910B01E05AFF4F1082E0914F
:101E00000801F0910901E05AFF4F1082E0910601AC
:101E1000F0910701E05AFF4F1082E0910401F09128
:101E20000501E05AFF4F1082E0910201F091030199
:101E3000E05AFF4F1082E0910001F0910101E05A59
:101E4000FF4F81E08083E091FE00F091FF00E05AB7
:101E5000FF4F1082E091FC00F091FD00E05AFF4F2F
:101E600080830C945627E0911401F0911501E05AFB
:101E7000FF4F81E08083E0911201F0911301E05A5D
:101E8000FF4F1082E0911001F0911101E05AFF4FD5
:101E90001082E0910E01F0910F01E05AFF4F108285
:101EA000E0910C01F0910D01E05AFF4F1082E0919A
:101EB0000A01F0910B01E05AFF4F8083E091080185
:101EC000F0910901E05AFF4F1082E0910601F09174
:101ED0000701E05AFF4F1082E0910401F0910501E3
:101EE000E05AFF4F1082E0910201F0910301E05AA5
:101EF000FF4F8083E0910001F0910101E05AFF4F14
:101F00001082E091FE00F091FF00E05AFF4F108236
:101F1000E091FC00F091FD00E05AFF4F80830C94AB
:101F20005627E0911401F0911501E05AFF4F81E02E
:101F30008083E0911201F0911301E05AFF4F8083FA
:101F4000E0911001F0911101E05AFF4F8083E09180
:101F50000E01F0910F01E05AFF4F8083E0910C01D8
:101F6000F0910D01E05AFF4F8083E0910A01F0915A
:101F70000B01E05AFF4F8083E0910801F0910901C5
:101F8000E05AFF4F1082E0910601F0910701E05AFC
:101F9000FF4F1082E0910401F0910501E05AFF4FDC
:101FA0001082E0910201F0910301E05AFF4F80831B
:101FB000E0910001F0910101E05AFF4F8083E09130
:101FC000FE00F091FF00E05AFF4F8083E091FC009B
:101FD000F091FD00E05AFF4F80830C945627E0916A
:101FE0001401F0911501E05AFF4F81E08083E091E8
:101FF0001201F0911301E05AFF4F8083E09110012C
:10200000F0911101E05AFF4F8083E0910E01F091B1
:102010000F01E05AFF4F1082E0910C01F0910D0189
:10202000E05AFF4F8083E0910A01F0910B01E05AE2
:10203000FF4F8083E0910801F0910901E05AFF4FC2
:102040008083E0910601F0910701E05AFF4F808301
:10205000E0910401F0910501E05AFF4F1082E091F8
:102060000201F0910301E05AFF4F1082E09100015C
:10207000F0910101E05AFF4F1082E091FE00F091D3
:10208000FF00E05AFF4F1082E091FC00F091FD004C
:10209000E05AFF4F10820C945627E0911401F09102
:1020A0001501E05AFF4F81E08083E0911201F09129
:1020B0001301E05AFF4F8083E0911001F09111016C
:1020C000E05AFF4F8083E0910E01F0910F01E05A3A
:1020D000FF4F8083E0910C01F0910D01E05AFF4F1A
:1020E0001082E0910A01F0910B01E05AFF4F10823B
:1020F000E0910801F0910901E05AFF4F1082E09150
:102100000601F0910701E05AFF4F8083E09104013E
:10211000F0910501E05AFF4F8083E0910201F091B8
:102120000301E05AFF4F1082E0910001F09101019C
:10213000E05AFF4F1082E091FE00F091FF00E05A5C
:10214000FF4F1082E091FC00F091FD00E05AFF4F3C
:1021500010820C945627E0911401F0911501E05A79
:10216000FF4F81E08083E0911201F0911301E05A6A
:10217000FF4F1082E0911001F0911101E05AFF4FE2
:102180001082E0910E01F0910F01E05AFF4F808321
:10219000E0910C01F0910D01E05AFF4F8083E09136
:1021A0000A01F0910B01E05AFF4F8083E091080192
:1021B000F0910901E05AFF4F1082E0910601F09181
:1021C0000701E05AFF4F1082E0910401F0910501F0
:1021D000E05AFF4F1082E0910201F0910301E05AB2
:1021E000FF4F1082E0910001F0910101E05AFF4F92
:1021F0001082E091FE00F091FF00E05AFF4F108244
:10220000E091FC00F091FD00E05AFF4F10820C9429
:102210005627E0911401F0911501E05AFF4F81E03B
:102220008083E0911201F0911301E05AFF4F808307
:10223000E0911001F0911101E05AFF4F8083E0918D
:102240000E01F0910F01E05AFF4F8083E0910C01E5
:10225000F0910D01E05AFF4F1082E0910A01F091D8
:102260000B01E05AFF4F1082E0910801F091090143
:10227000E05AFF4F1082E0910601F0910701E05A09
:10228000FF4F1082E0910401F0910501E05AFF4FE9
:102290008083E0910201F0910301E05AFF4F108228
:1022A000E0910001F0910101E05AFF4F1082E091AE
:1022B000FE00F091FF00E05AFF4F1082E091FC0019
:1022C000F091FD00E05AFF4F10820C945627E091E8
:1022D0001401F0911501E05AFF4F81E08083E091F5
:1022E0001201F0911301E05AFF4F1082E0911001AA
:1022F000F0911101E05AFF4F1082E0910E01F09130
:102300000F01E05AFF4F8083E0910C01F0910D0125
:10231000E05AFF4F8083E0910A01F0910B01E05AEF
:10232000FF4F8083E0910801F0910901E05AFF4FCF
:102330008083E0910601F0910701E05AFF4F80830E
:10234000E0910401F0910501E05AFF4F1082E09105
:102350000201F0910301E05AFF4F1082E091000169
:10236000F0910101E05AFF4F1082E091FE00F091E0
:10237000FF00E05AFF4F1082E091FC00F091FD0059
:10238000E05AFF4F10820C945627E0911401F0910F
:102390001501E05AFF4F81E08083E0911201F09136
:1023A0001301E05AFF4F1082E0911001F0911101EA
:1023B000E05AFF4F1082E0910E01F0910F01E05AB8
:1023C000FF4F1082E0910C01F0910D01E05AFF4F98
:1023D0008083E0910A01F0910B01E05AFF4F808366
:1023E000E0910801F0910901E05AFF4F8083E091EC
:1023F0000601F0910701E05AFF4F8083E09104014C
:10240000F0910501E05AFF4F1082E0910201F09136
:102410000301E05AFF4F1082E0910001F0910101A9
:10242000E05AFF4F1082E091FE00F091FF00E05A69
:10243000FF4F1082E091FC00F091FD00E05AFF4F49
:1024400010820C945627E0911401F0911501E05A86
:10245000FF4F81E08083E0911201F0911301E05A77
:10246000FF4F1082E0911001F0911101E05AFF4FEF
:102470008083E0910E01F0910F01E05AFF4F8083BD
:10248000E0910C01F0910D01E05AFF4F8083E09143
:102490000A01F0910B01E05AFF4F8083E09108019F
:1024A000F0910901E05AFF4F1082E0910601F0918E
:1024B0000701E05AFF4F8083E0910401F09105018C
:1024C000E05AFF4F1082E0910201F0910301E05ABF
:1024D000FF4F1082E0910001F0910101E05AFF4F9F
:1024E0001082E091FE00F091FF00E05AFF4F108251
:1024F000E091FC00F091FD00E05AFF4F10820C9437
:102500005627E0911401F0911501E05AFF4F108217
:10251000E0911201F0911301E05AFF4F81E08083B6
:10252000E0911001F0911101E05AFF4F8083E0919A
:102530000E01F0910F01E05AFF4F1082E0910C0163
:10254000F0910D01E05AFF4F8083E0910A01F09174
:102550000B01E05AFF4F8083E0910801F0910901DF
:10256000E05AFF4F8083E0910601F0910701E05AA5
:10257000FF4F8083E0910401F0910501E05AFF4F85
:102580001082E0910201F0910301E05AFF4F1082A6
:10259000E0910001F0910101E05AFF4F1082E091BB
:1025A000FE00F091FF00E05AFF4F1082E091FC0026
:1025B000F091FD00E05AFF4F10820C945627E091F5
:1025C0001401F0911501E05AFF4F81E08083E09102
:1025D0001201F0911301E05AFF4F1082E0911001B7
:1025E000F0911101E05AFF4F1082E0910E01F0913D
:1025F0000F01E05AFF4F8083E0910C01F0910D0133
:10260000E05AFF4F1082E0910A01F0910B01E05A6D
:10261000FF4F1082E0910801F0910901E05AFF4F4D
:102620001082E0910601F0910701E05AFF4F1082FD
:10263000E0910401F0910501E05AFF4F8083E091A1
:102640000201F0910301E05AFF4F1082E091000176
:10265000F0910101E05AFF4F1082E091FE00F091ED
:10266000FF00E05AFF4F1082E091FC00F091FD0066
:10267000E05AFF4F10820C945627E0911401F0911C
:102680001501E05AFF4F1082E0911201F091130101
:10269000E05AFF4F81E08083E0911001F091110139
:1026A000E05AFF4F8083E0910E01F0910F01E05A54
:1026B000FF4F8083E0910C01F0910D01E05AFF4F34
:1026C0008083E0910A01F0910B01E05AFF4F1082E4
:1026D000E0910801F0910901E05AFF4F1082E0916A
:1026E0000601F0910701E05AFF4F1082E0910401CA
:1026F000F0910501E05AFF4F1082E0910201F09144
:102700000301E05AFF4F1082E0910001F0910101B6
:10271000E05AFF4F1082E091FE00F091FF00E05A76
:10272000FF4F1082E091FC00F091FD00E05AFF4F56
:1027300010820C945627E0911401F0911501E05A93
:10274000FF4F1082E0911201F0911301E05AFF4F08
:102750001082E0911001F0911101E05AFF4F1082B8
:10276000E0910E01F0910F01E05AFF4F1082E091CD
:102770000C01F0910D01E05AFF4F81E08083E09160
:102780000A01F0910B01E05AFF4F8083E0910801AC
:10279000F0910901E05AFF4F8083E0910601F0912A
:1027A0000701E05AFF4F1082E0910401F09105010A
:1027B000E05AFF4F1082E0910201F0910301E05ACC
:1027C000FF4F8083E0910001F0910101E05AFF4F3B
:1027D0001082E091FE00F091FF00E05AFF4F8083ED
:1027E000E091FC00F091FD00E05AFF4F10820C9444
:1027F0005627E0911401F0911501E05AFF4F108225
:10280000E0911201F0911301E05AFF4F1082E09124
:102810001001F0911101E05AFF4F1082E0910E017A
:10282000F0910F01E05AFF4F81E08083E0910C01AD
:10283000F0910D01E05AFF4F8083E0910A01F09181
:102840000B01E05AFF4F8083E0910801F0910901EC
:10285000E05AFF4F1082E0910601F0910701E05A23
:10286000FF4F1082E0910401F0910501E05AFF4F03
:102870001082E0910201F0910301E05AFF4F1082B3
:10288000E0910001F0910101E05AFF4F1082E091C8
:10289000FE00F091FF00E05AFF4F1082E091FC0033
:1028A000F091FD00E05AFF4F10820C945627E09102
:1028B0001401F0911501E05AFF4F1082E0911201CE
:1028C000F0911301E05AFF4F81E08083E091100105
:1028D000F0911101E05AFF4F8083E0910E01F091D9
:1028E0000F01E05AFF4F1082E0910C01F0910D01B1
:1028F000E05AFF4F8083E0910A01F0910B01E05A0A
:10290000FF4F8083E0910801F0910901E05AFF4FE9
:102910001082E0910601F0910701E05AFF4F10820A
:10292000E0910401F0910501E05AFF4F1082E0911F
:102930000201F0910301E05AFF4F8083E091000112
:10294000F0910101E05AFF4F8083E091FE00F09189
:10295000FF00E05AFF4F1082E091FC00F091FD0073
:10296000E05AFF4F10820C945627E0911401F09129
:102970001501E05AFF4F1082E0911201F09113010E
:10298000E05AFF4F81E08083E0911001F091110146
:10299000E05AFF4F8083E0910E01F0910F01E05A61
:1029A000FF4F1082E0910C01F0910D01E05AFF4FB2
:1029B0008083E0910A01F0910B01E05AFF4F808380
:1029C000E0910801F0910901E05AFF4F1082E09177
:1029D0000601F0910701E05AFF4F1082E0910401D7
:1029E000F0910501E05AFF4F1082E0910201F09151
:1029F0000301E05AFF4F1082E0910001F0910101C4
:102A0000E05AFF4F8083E091FE00F091FF00E05A12
:102A1000FF4F8083E091FC00F091FD00E05AFF4FF2
:102A200010820C945627E0911401F0911501E05AA0
:102A3000FF4F81E08083E0911201F0911301E05A91
:102A4000FF4F8083E0911001F0911101E05AFF4F98
:102A50008083E0910E01F0910F01E05AFF4F8083D7
:102A6000E0910C01F0910D01E05AFF4F8083E0915D
:102A70000A01F0910B01E05AFF4F8083E0910801B9
:102A8000F0910901E05AFF4F1082E0910601F091A8
:102A90000701E05AFF4F1082E0910401F091050117
:102AA000E05AFF4F1082E0910201F0910301E05AD9
:102AB000FF4F1082E0910001F0910101E05AFF4FB9
:102AC0001082E091FE00F091FF00E05AFF4F10826B
:102AD000E091FC00F091FD00E05AFF4F10820C9451
:102AE0005627E0911401F0911501E05AFF4F81E063
:102AF0008083E0911201F0911301E05AFF4F80832F
:102B0000E0911001F0911101E05AFF4F1082E09125
:102B10000E01F0910F01E05AFF4F1082E0910C017D
:102B2000F0910D01E05AFF4F8083E0910A01F0918E
:102B30000B01E05AFF4F8083E0910801F0910901F9
:102B4000E05AFF4F8083E0910601F0910701E05ABF
:102B5000FF4F8083E0910401F0910501E05AFF4F9F
:102B60001082E0910201F0910301E05AFF4F1082C0
:102B7000E0910001F0910101E05AFF4F1082E091D5
:102B8000FE00F091FF00E05AFF4F1082E091FC0040
:102B9000F091FD00E05AFF4F10820C945627E0910F
:102BA0001401F0911501E05AFF4F81E08083E0911C
:102BB0001201F0911301E05AFF4F8083E091100160
:102BC000F0911101E05AFF4F8083E0910E01F091E6
:102BD0000F01E05AFF4F8083E0910C01F0910D014D
:102BE000E05AFF4F8083E0910A01F0910B01E05A17
:102BF000FF4F8083E0910801F0910901E05AFF4FF7
:102C00001082E0910601F0910701E05AFF4F108217
:102C1000E0910401F0910501E05AFF4F1082E0912C
:102C20000201F0910301E05AFF4F1082E091000190
:102C3000F0910101E05AFF4F1082E091FE00F09107
:102C4000FF00E05AFF4F8083E091FC00F091FD000F
:102C5000E05AFF4F10820C945627E0911401F09136
:102C60001501E05AFF4F81E08083E0911201F0915D
:102C70001301E05AFF4F8083E0911001F0911101A0
:102C8000E05AFF4F1082E0910E01F0910F01E05ADF
:102C9000FF4F1082E0910C01F0910D01E05AFF4FBF
:102CA0008083E0910A01F0910B01E05AFF4F80838D
:102CB000E0910801F0910901E05AFF4F8083E09113
:102CC0000601F0910701E05AFF4F1082E0910401E4
:102CD000F0910501E05AFF4F1082E0910201F0915E
:102CE0000301E05AFF4F1082E0910001F0910101D1
:102CF000E05AFF4F1082E091FE00F091FF00E05A91
:102D0000FF4F8083E091FC00F091FD00E05AFF4FFF
:102D100010820C945627E0911401F0911501E05AAD
:102D2000FF4F81E08083E0911201F0911301E05A9E
:102D3000FF4F1082E0911001F0911101E05AFF4F16
:102D40008083E0910E01F0910F01E05AFF4F8083E4
:102D5000E0910C01F0910D01E05AFF4F1082E091DB
:102D60000A01F0910B01E05AFF4F1082E091080137
:102D7000F0910901E05AFF4F1082E0910601F091B5
:102D80000701E05AFF4F8083E0910401F0910501B3
:102D9000E05AFF4F1082E0910201F0910301E05AE6
:102DA000FF4F1082E0910001F0910101E05AFF4FC6
:102DB0008083E091FE00F091FF00E05AFF4F108207
:102DC000E091FC00F091FD00E05AFF4F10820C945E
:102DD0005627E0911401F0911501E05AFF4F81E070
:102DE0008083E0911201F0911301E05AFF4F1082AD
:102DF000E0911001F0911101E05AFF4F1082E09133
:102E00000E01F0910F01E05AFF4F1082E0910C018A
:102E1000F0910D01E05AFF4F1082E0910A01F0910C
:102E20000B01E05AFF4F1082E0910801F091090177
:102E3000E05AFF4F1082E0910601F0910701E05A3D
:102E4000FF4F1082E0910401F0910501E05AFF4F1D
:102E50008083E0910201F0910301E05AFF4F10825C
:102E6000E0910001F0910101E05AFF4F1082E091E2
:102E7000FE00F091FF00E05AFF4F1082E091FC004D
:102E8000F091FD00E05AFF4F10820C945627E0911C
:102E90001401F0911501E05AFF4F1082E0911201E8
:102EA000F0911301E05AFF4F81E08083E09110011F
:102EB000F0911101E05AFF4F8083E0910E01F091F3
:102EC0000F01E05AFF4F8083E0910C01F0910D015A
:102ED000E05AFF4F8083E0910A01F0910B01E05A24
:102EE000FF4F8083E0910801F0910901E05AFF4F04
:102EF0001082E0910601F0910701E05AFF4F108225
:102F0000E0910401F0910501E05AFF4F1082E09139
:102F10000201F0910301E05AFF4F1082E09100019D
:102F2000F0910101E05AFF4F1082E091FE00F09114
:102F3000FF00E05AFF4F1082E091FC00F091FD008D
:102F4000E05AFF4F10820C945627E0911401F09143
:102F50001501E05AFF4F1082E0911201F091130128
:102F6000E05AFF4F1082E0911001F0911101E05AF8
:102F7000FF4F1082E0910E01F0910F01E05AFF4FD8
:102F80001082E0910C01F0910D01E05AFF4F81E0B9
:102F90008083E0910A01F0910B01E05AFF4F80839A
:102FA000E0910801F0910901E05AFF4F1082E09191
:102FB0000601F0910701E05AFF4F1082E0910401F1
:102FC000F0910501E05AFF4F1082E0910201F0916B
:102FD0000301E05AFF4F8083E0910001F09101016D
:102FE000E05AFF4F1082E091FE00F091FF00E05A9E
:102FF000FF4F1082E091FC00F091FD00E05AFF4F7E
:1030000080830C945627E0911401F0911501E05A49
:10301000FF4F1082E0911201F0911301E05AFF4F2F
:1030200081E08083E0911001F0911101E05AFF4F9F
:103030008083E0910E01F0910F01E05AFF4F108262
:10304000E0910C01F0910D01E05AFF4F8083E09177
:103050000A01F0910B01E05AFF4F8083E0910801D3
:10306000F0910901E05AFF4F1082E0910601F091C2
:103070000701E05AFF4F1082E0910401F091050131
:10308000E05AFF4F1082E0910201F0910301E05AF3
:10309000FF4F1082E0910001F0910101E05AFF4FD3
:1030A0001082E091FE00F091FF00E05AFF4F808314
:1030B000E091FC00F091FD00E05AFF4F80830C94FA
:1030C0005627E0911401F0911501E05AFF4F10824C
:1030D000E0911201F0911301E05AFF4F1082E0914C
:1030E0001001F0911101E05AFF4F1082E0910E01A2
:1030F000F0910F01E05AFF4F1082E0910C01F09126
:103100000D01E05AFF4F1082E0910A01F0910B018E
:10311000E05AFF4F1082E0910801F0910901E05A56
:10312000FF4F1082E0910601F0910701E05AFF4F36
:103130001082E0910401F0910501E05AFF4F1082E6
:10314000E0910201F0910301E05AFF4F81E080839A
:10315000E0910001F0910101E05AFF4F8083E0917E
:10316000FE00F091FF00E05AFF4F8083E091FC00E9
:10317000F091FD00E05AFF4F80830C945627E091B8
:103180001401F0911501E05AFF4F1082E0911201F5
:10319000F0911301E05AFF4F81E08083E09110012C
:1031A000F0911101E05AFF4F8083E0910E01F09100
:1031B0000F01E05AFF4F8083E0910C01F0910D0167
:1031C000E05AFF4F1082E0910A01F0910B01E05AA2
:1031D000FF4F8083E0910801F0910901E05AFF4F11
:1031E0008083E0910601F0910701E05AFF4F808350
:1031F000E0910401F0910501E05AFF4F1082E09147
:103200000201F0910301E05AFF4F1082E0910001AA
:10321000F0910101E05AFF4F1082E091FE00F09121
:10322000FF00E05AFF4F1082E091FC00F091FD009A
:10323000E05AFF4F10820C945627E0911401F09150
:103240001501E05AFF4F81E08083E0911201F09177
:103250001301E05AFF4F1082E0911001F09111012B
:10326000E05AFF4F1082E0910E01F0910F01E05AF9
:10327000FF4F8083E0910C01F0910D01E05AFF4F68
:103280001082E0910A01F0910B01E05AFF4F108289
:10329000E0910801F0910901E05AFF4F1082E0919E
:1032A0000601F0910701E05AFF4F1082E0910401FE
:1032B000F0910501E05AFF4F1082E0910201F09178
:1032C0000301E05AFF4F8083E0910001F09101017A
:1032D000E05AFF4F1082E091FE00F091FF00E05AAB
:1032E000FF4F1082E091FC00F091FD00E05AFF4F8B
:1032F00080830C945627E0911401F0911501E05A57
:10330000FF4F81E08083E0911201F0911301E05AB8
:10331000FF4F1082E0911001F0911101E05AFF4F30
:103320001082E0910E01F0910F01E05AFF4F80836F
:10333000E0910C01F0910D01E05AFF4F8083E09184
:103340000A01F0910B01E05AFF4F8083E0910801E0
:10335000F0910901E05AFF4F1082E0910601F091CF
:103360000701E05AFF4F1082E0910401F09105013E
:10337000E05AFF4F1082E0910201F0910301E05A00
:10338000FF4F1082E0910001F0910101E05AFF4FE0
:103390001082E091FE00F091FF00E05AFF4F108292
:1033A000E091FC00F091FD00E05AFF4F10820C9478
:1033B0005627E0911401F0911501E05AFF4F108259
:1033C000E0911201F0911301E05AFF4F1082E09159
:1033D0001001F0911101E05AFF4F1082E0910E01AF
:1033E000F0910F01E05AFF4F1082E0910C01F09133
:1033F0000D01E05AFF4F1082E0910A01F0910B019C
:10340000E05AFF4F1082E0910801F0910901E05A63
:10341000FF4F1082E0910601F0910701E05AFF4F43
:103420001082E0910401F0910501E05AFF4F1082F3
:10343000E0910201F0910301E05AFF4F1082E09108
:103440000001F0910101E05AFF4F81E08083E0919B
:10345000FE00F091FF00E05AFF4F8083E091FC00F6
:10346000F091FD00E05AFF4F10820C945627E09136
:103470001401F0911501E05AFF4F81E08083E09143
:103480001201F0911301E05AFF4F8083E091100187
:10349000F0911101E05AFF4F8083E0910E01F0910D
:1034A0000F01E05AFF4F8083E0910C01F0910D0174
:1034B000E05AFF4F1082E0910A01F0910B01E05AAF
:1034C000FF4F1082E0910801F0910901E05AFF4F8F
:1034D0001082E0910601F0910701E05AFF4F10823F
:1034E000E0910401F0910501E05AFF4F1082E09154
:1034F0000201F0910301E05AFF4F1082E0910001B8
:10350000F0910101E05AFF4F1082E091FE00F0912E
:10351000FF00E05AFF4F1082E091FC00F091FD00A7
:10352000E05AFF4F10820C945627E0911401F0915D
:103530001501E05AFF4F81E08083E0911201F09184
:103540001301E05AFF4F8083E0911001F0911101C7
:10355000E05AFF4F1082E0910E01F0910F01E05A06
:10356000FF4F1082E0910C01F0910D01E05AFF4FE6
:103570001082E0910A01F0910B01E05AFF4F808325
:10358000E0910801F0910901E05AFF4F1082E091AB
:103590000601F0910701E05AFF4F1082E09104010B
:1035A000F0910501E05AFF4F1082E0910201F09185
:1035B0000301E05AFF4F1082E0910001F0910101F8
:1035C000E05AFF4F1082E091FE00F091FF00E05AB8
:1035D000FF4F1082E091FC00F091FD00E05AFF4F98
:1035E00010820C945627E0911401F0911501E05AD5
:1035F000FF4F1082E0911201F0911301E05AFF4F4A
:103600001082E0911001F0911101E05AFF4F1082F9
:10361000E0910E01F0910F01E05AFF4F81E08083AD
:10362000E0910C01F0910D01E05AFF4F1082E09102
:103630000A01F0910B01E05AFF4F1082E09108015E
:10364000F0910901E05AFF4F1082E0910601F091DC
:103650000701E05AFF4F1082E0910401F09105014B
:10366000E05AFF4F1082E0910201F0910301E05A0D
:10367000FF4F1082E0910001F0910101E05AFF4FED
:103680001082E091FE00F091FF00E05AFF4F10829F
:10369000E091FC00F091FD00E05AFF4F10820C9485
:1036A0005627E0911401F0911501E05AFF4F108266
:1036B000E0911201F0911301E05AFF4F1082E09166
:1036C0001001F0911101E05AFF4F1082E0910E01BC
:1036D000F0910F01E05AFF4F1082E0910C01F09140
:1036E0000D01E05AFF4F1082E0910A01F0910B01A9
:1036F000E05AFF4F1082E0910801F0910901E05A71
:10370000FF4F1082E0910601F0910701E05AFF4F50
:103710001082E0910401F0910501E05AFF4F108200
:10372000E0910201F0910301E05AFF4F1082E09115
:103730000001F0910101E05AFF4F81E08083E091A8
:10374000FE00F091FF00E05AFF4F1082E091FC0074
:10375000F091FD00E05AFF4F10820C945627E09143
:103760001401F0911501E05AFF4F81E08083E09150
:103770001201F0911301E05AFF4F8083E091100194
:10378000F0911101E05AFF4F8083E0910E01F0911A
:103790000F01E05AFF4F8083E0910C01F0910D0181
:1037A000E05AFF4F8083E0910A01F0910B01E05A4B
:1037B000FF4F1082E0910801F0910901E05AFF4F9C
:1037C0008083E0910601F0910701E05AFF4F80836A
:1037D000E0910401F0910501E05AFF4F1082E09161
:1037E0000201F0910301E05AFF4F1082E0910001C5
:1037F000F0910101E05AFF4F1082E091FE00F0913C
:10380000FF00E05AFF4F1082E091FC00F091FD00B4
:10381000E05AFF4F10820C945627E0911401F0916A
:103820001501E05AFF4F1082E0911201F09113014F
:10383000E05AFF4F1082E0911001F0911101E05A1F
:10384000FF4F1082E0910E01F0910F01E05AFF4FFF
:1038500081E08083E0910C01F0910D01E05AFF4F6F
:103860008083E0910A01F0910B01E05AFF4F8083C1
:10387000E0910801F0910901E05AFF4F8083E09147
:103880000601F0910701E05AFF4F1082E091040118
:10389000F0910501E05AFF4F1082E0910201F09192
:1038A0000301E05AFF4F1082E0910001F091010105
:1038B000E05AFF4F1082E091FE00F091FF00E05AC5
:1038C000FF4F8083E091FC00F091FD00E05AFF4F34
:1038D00010820C945627E0911401F0911501E05AE2
:1038E000FF4F1082E0911201F0911301E05AFF4F57
:1038F0001082E0911001F0911101E05AFF4F108207
:10390000E0910E01F0910F01E05AFF4F81E08083BA
:10391000E0910C01F0910D01E05AFF4F8083E0919E
:103920000A01F0910B01E05AFF4F1082E09108016B
:10393000F0910901E05AFF4F8083E0910601F09178
:103940000701E05AFF4F8083E0910401F0910501E7
:10395000E05AFF4F1082E0910201F0910301E05A1A
:10396000FF4F1082E0910001F0910101E05AFF4FFA
:103970001082E091FE00F091FF00E05AFF4F1082AC
:10398000E091FC00F091FD00E05AFF4F10820C9492
:103990005627E0911401F0911501E05AFF4F108273
:1039A000E0911201F0911301E05AFF4F81E0808312
:1039B000E0911001F0911101E05AFF4F8083E091F6
:1039C0000E01F0910F01E05AFF4F8083E0910C014E
:1039D000F0910D01E05AFF4F1082E0910A01F09141
:1039E0000B01E05AFF4F1082E0910801F0910901AC
:1039F000E05AFF4F1082E0910601F0910701E05A72
:103A0000FF4F8083E0910401F0910501E05AFF4FE0
:103A10001082E0910201F0910301E05AFF4F108201
:103A2000E0910001F0910101E05AFF4F1082E09116
:103A3000FE00F091FF00E05AFF4F1082E091FC0081
:103A4000F091FD00E05AFF4F80830C945627E091DF
:103A50001401F0911501E05AFF4F81E08083E0915D
:103A60001201F0911301E05AFF4F1082E091100112
:103A7000F0911101E05AFF4F1082E0910E01F09198
:103A80000F01E05AFF4F8083E0910C01F0910D018E
:103A9000E05AFF4F8083E0910A01F0910B01E05A58
:103AA000FF4F8083E0910801F0910901E05AFF4F38
:103AB0008083E0910601F0910701E05AFF4F1082E8
:103AC000E0910401F0910501E05AFF4F1082E0916E
:103AD0000201F0910301E05AFF4F8083E091000161
:103AE000F0910101E05AFF4F1082E091FE00F09149
:103AF000FF00E05AFF4F1082E091FC00F091FD00C2
:103B0000E05AFF4F10820C945627E0911401F09177
:103B10001501E05AFF4F81E08083E0911201F0919E
:103B20001301E05AFF4F1082E0911001F091110152
:103B3000E05AFF4F1082E0910E01F0910F01E05A20
:103B4000FF4F1082E0910C01F0910D01E05AFF4F00
:103B50008083E0910A01F0910B01E05AFF4F8083CE
:103B6000E0910801F0910901E05AFF4F8083E09154
:103B70000601F0910701E05AFF4F1082E091040125
:103B8000F0910501E05AFF4F1082E0910201F0919F
:103B90000301E05AFF4F1082E0910001F091010112
:103BA000E05AFF4F1082E091FE00F091FF00E05AD2
:103BB000FF4F1082E091FC00F091FD00E05AFF4FB2
:103BC00010820C945627E0911401F0911501E05AEF
:103BD000FF4F81E08083E0911201F0911301E05AE0
:103BE000FF4F8083E0911001F0911101E05AFF4FE7
:103BF0008083E0910E01F0910F01E05AFF4F808326
:103C0000E0910C01F0910D01E05AFF4F1082E0911C
:103C10000A01F0910B01E05AFF4F1082E091080178
:103C2000F0910901E05AFF4F1082E0910601F091F6
:103C30000701E05AFF4F8083E0910401F0910501F4
:103C4000E05AFF4F1082E0910201F0910301E05A27
:103C5000FF4F1082E0910001F0910101E05AFF4F07
:103C60008083E091FE00F091FF00E05AFF4F108248
:103C7000E091FC00F091FD00E05AFF4F10820C949F
:103C80005627E0911401F0911501E05AFF4F108280
:103C9000E0911201F0911301E05AFF4F1082E09180
:103CA0001001F0911101E05AFF4F81E08083E09113
:103CB0000E01F0910F01E05AFF4F1082E0910C01CC
:103CC000F0910D01E05AFF4F8083E0910A01F091DD
:103CD0000B01E05AFF4F8083E0910801F091090148
:103CE000E05AFF4F8083E0910601F0910701E05A0E
:103CF000FF4F8083E0910401F0910501E05AFF4FEE
:103D00001082E0910201F0910301E05AFF4F10820E
:103D1000E0910001F0910101E05AFF4F1082E09123
:103D2000FE00F091FF00E05AFF4F1082E091FC008E
:103D3000F091FD00E05AFF4F10820C945627E0915D
:103D40001401F0911501E05AFF4F1082E091120129
:103D5000F0911301E05AFF4F1082E0911001F091B1
:103D60001101E05AFF4F1082E0910E01F0910F0116
:103D7000E05AFF4F1082E0910C01F0910D01E05AE2
:103D8000FF4F1082E0910A01F0910B01E05AFF4FC2
:103D90001082E0910801F0910901E05AFF4F108272
:103DA000E0910601F0910701E05AFF4F1082E09187
:103DB0000401F0910501E05AFF4F81E08083E0911A
:103DC0000201F0910301E05AFF4F1082E0910001DF
:103DD000F0910101E05AFF4F1082E091FE00F09156
:103DE000FF00E05AFF4F1082E091FC00F091FD00CF
:103DF000E05AFF4F10820C945627E0911401F09185
:103E00001501E05AFF4F1082E0911201F091130169
:103E1000E05AFF4F81E08083E0911001F0911101A1
:103E2000E05AFF4F8083E0910E01F0910F01E05ABC
:103E3000FF4F8083E0910C01F0910D01E05AFF4F9C
:103E40001082E0910A01F0910B01E05AFF4F1082BD
:103E5000E0910801F0910901E05AFF4F1082E091D2
:103E60000601F0910701E05AFF4F1082E091040132
:103E7000F0910501E05AFF4F1082E0910201F091AC
:103E80000301E05AFF4F1082E0910001F09101011F
:103E9000E05AFF4F1082E091FE00F091FF00E05ADF
:103EA000FF4F1082E091FC00F091FD00E05AFF4FBF
:103EB0001082FCC7E0911401F0911501E05AFF4F08
:103EC0001082E0911201F0911301E05AFF4F10822D
:103ED000E0911001F0911101E05AFF4F1082E09142
:103EE0000E01F0910F01E05AFF4F1082E0910C019A
:103EF000F0910D01E05AFF4F81E08083E0910A01CB
:103F0000F0910B01E05AFF4F8083E0910801F0919E
:103F10000901E05AFF4F8083E0910601F09107010B
:103F2000E05AFF4F1082E0910401F0910501E05A40
:103F3000FF4F1082E0910201F0910301E05AFF4F20
:103F40008083E0910001F0910101E05AFF4F10825F
:103F5000E091FE00F091FF00E05AFF4F8083E09176
:103F6000FC00F091FD00E05AFF4F10829FC7E091E6
:103F70001401F0911501E05AFF4F1082E0911201F7
:103F8000F0911301E05AFF4F1082E0911001F0917F
:103F90001101E05AFF4F1082E0910E01F0910F01E4
:103FA000E05AFF4F1082E0910C01F0910D01E05AB0
:103FB000FF4F81E08083E0910A01F0910B01E05A0C
:103FC000FF4F8083E0910801F0910901E05AFF4F13
:103FD0001082E0910601F0910701E05AFF4F108234
:103FE000E0910401F0910501E05AFF4F1082E09149
:103FF0000201F0910301E05AFF4F1082E0910001AD
:10400000F0910101E05AFF4F1082E091FE00F09123
:10401000FF00E05AFF4F1082E091FC00F091FD009C
:10402000E05AFF4F108242C7E0911401F091150150
:10403000E05AFF4F81E08083E0911201F09113017B
:10404000E05AFF4F8083E0911001F0911101E05A96
:10405000FF4F8083E0910E01F0910F01E05AFF4F76
:104060001082E0910C01F0910D01E05AFF4F808326
:10407000E0910A01F0910B01E05AFF4F8083E0913B
:104080000801F0910901E05AFF4F1082E09106010A
:10409000F0910701E05AFF4F1082E0910401F09186
:1040A0000501E05AFF4F8083E0910201F091030186
:1040B000E05AFF4F1082E0910001F0910101E05AB7
:1040C000FF4F1082E091FE00F091FF00E05AFF4F99
:1040D0001082E091FC00F091FD00E05AFF4F108249
:1040E000E5C6E0911401F0911501E05AFF4F1082EE
:1040F000E0911201F0911301E05AFF4F1082E0911C
:104100001001F0911101E05AFF4F1082E0910E0171
:10411000F0910F01E05AFF4F1082E0910C01F091F5
:104120000D01E05AFF4F81E08083E0910A01F09198
:104130000B01E05AFF4F1082E0910801F091090154
:10414000E05AFF4F8083E0910601F0910701E05AA9
:10415000FF4F1082E0910401F0910501E05AFF4FFA
:104160001082E0910201F0910301E05AFF4F1082AA
:10417000E0910001F0910101E05AFF4F1082E091BF
:10418000FE00F091FF00E05AFF4F8083E091FC00B9
:10419000F091FD00E05AFF4F108288C6E0911401B3
:1041A000F0911501E05AFF4F1082E0911201F09159
:1041B0001301E05AFF4F1082E0911001F0911101BC
:1041C000E05AFF4F81E08083E0910E01F0910F01F2
:1041D000E05AFF4F8083E0910C01F0910D01E05A0D
:1041E000FF4F8083E0910A01F0910B01E05AFF4FED
:1041F0001082E0910801F0910901E05AFF4F80839D
:10420000E0910601F0910701E05AFF4F8083E091B1
:104210000401F0910501E05AFF4F1082E091020184
:10422000F0910301E05AFF4F1082E0910001F091FC
:104230000101E05AFF4F1082E091FE00F091FF0073
:10424000E05AFF4F1082E091FC00F091FD00E05A2F
:10425000FF4F10822BC6E0911401F0911501E05A36
:10426000FF4F81E08083E0911201F0911301E05A49
:10427000FF4F1082E0911001F0911101E05AFF4FC1
:104280001082E0910E01F0910F01E05AFF4F108271
:10429000E0910C01F0910D01E05AFF4F8083E09115
:1042A0000A01F0910B01E05AFF4F8083E091080171
:1042B000F0910901E05AFF4F8083E0910601F091EF
:1042C0000701E05AFF4F1082E0910401F0910501CF
:1042D000E05AFF4F1082E0910201F0910301E05A91
:1042E000FF4F8083E0910001F0910101E05AFF4F00
:1042F0001082E091FE00F091FF00E05AFF4F108223
:10430000E091FC00F091FD00E05AFF4F1082CEC515
:10431000E0911401F0911501E05AFF4F81E0808394
:10432000E0911201F0911301E05AFF4F8083E09178
:104330001001F0911101E05AFF4F1082E0910E013F
:10434000F0910F01E05AFF4F1082E0910C01F091C3
:104350000D01E05AFF4F1082E0910A01F0910B012C
:10436000E05AFF4F8083E0910801F0910901E05A83
:10437000FF4F8083E0910601F0910701E05AFF4F63
:104380008083E0910401F0910501E05AFF4F108213
:10439000E0910201F0910301E05AFF4F1082E09199
:1043A0000001F0910101E05AFF4F1082E091FE0000
:1043B000F091FF00E05AFF4F8083E091FC00F09104
:1043C000FD00E05AFF4F108271C5E0911401F09199
:1043D0001501E05AFF4F1082E0911201F091130194
:1043E000E05AFF4F1082E0911001F0911101E05A64
:1043F000FF4F1082E0910E01F0910F01E05AFF4F44
:104400001082E0910C01F0910D01E05AFF4F81E024
:104410008083E0910A01F0910B01E05AFF4F108276
:10442000E0910801F0910901E05AFF4F8083E0918B
:104430000601F0910701E05AFF4F1082E09104015C
:10444000F0910501E05AFF4F1082E0910201F091D6
:104450000301E05AFF4F1082E0910001F091010149
:10446000E05AFF4F1082E091FE00F091FF00E05A09
:10447000FF4F1082E091FC00F091FD00E05AFF4FE9
:10448000108214C5E0911401F0911501E05AFF4F1C
:1044900081E08083E0911201F0911301E05AFF4F17
:1044A0001082E0911001F0911101E05AFF4F8083DA
:1044B000E0910E01F0910F01E05AFF4F8083E091EF
:1044C0000C01F0910D01E05AFF4F1082E0910A01BA
:1044D000F0910B01E05AFF4F1082E0910801F0913A
:1044E0000901E05AFF4F1082E0910601F0910701A7
:1044F000E05AFF4F8083E0910401F0910501E05AFA
:10450000FF4F1082E0910201F0910301E05AFF4F4A
:104510001082E0910001F0910101E05AFF4F808389
:10452000E091FE00F091FF00E05AFF4F1082E09111
:10453000FC00F091FD00E05AFF4F1082B7C4E091FB
:104540001401F0911501E05AFF4F1082E091120121
:10455000F0911301E05AFF4F1082E0911001F091A9
:104560001101E05AFF4F1082E0910E01F0910F010E
:10457000E05AFF4F81E08083E0910C01F0910D0142
:10458000E05AFF4F8083E0910A01F0910B01E05A5D
:10459000FF4F8083E0910801F0910901E05AFF4F3D
:1045A0008083E0910601F0910701E05AFF4F1082ED
:1045B000E0910401F0910501E05AFF4F1082E09173
:1045C0000201F0910301E05AFF4F1082E0910001D7
:1045D000F0910101E05AFF4F1082E091FE00F0914E
:1045E000FF00E05AFF4F1082E091FC00F091FD00C7
:1045F000E05AFF4F10825AC4E0911401F091150166
:10460000E05AFF4F1082E0911201F0911301E05A3D
:10461000FF4F1082E0911001F0911101E05AFF4F1D
:1046200081E08083E0910E01F0910F01E05AFF4F8D
:104630008083E0910C01F0910D01E05AFF4F8083DF
:10464000E0910A01F0910B01E05AFF4F1082E091D6
:104650000801F0910901E05AFF4F1082E091060134
:10466000F0910701E05AFF4F1082E0910401F091B0
:104670000501E05AFF4F1082E0910201F091030121
:10468000E05AFF4F1082E0910001F0910101E05AE1
:10469000FF4F1082E091FE00F091FF00E05AFF4FC3
:1046A0001082E091FC00F091FD00E05AFF4F108273
:1046B000FDC3E0911401F0911501E05AFF4F108203
:1046C000E0911201F0911301E05AFF4F1082E09146
:1046D0001001F0911101E05AFF4F1082E0910E019C
:1046E000F0910F01E05AFF4F1082E0910C01F09120
:1046F0000D01E05AFF4F81E08083E0910A01F091C3
:104700000B01E05AFF4F1082E0910801F09109017E
:10471000E05AFF4F1082E0910601F0910701E05A44
:10472000FF4F1082E0910401F0910501E05AFF4F24
:104730001082E0910201F0910301E05AFF4F1082D4
:10474000E0910001F0910101E05AFF4F1082E091E9
:10475000FE00F091FF00E05AFF4F1082E091FC0054
:10476000F091FD00E05AFF4F8083A0C3E091140157
:10477000F0911501E05AFF4F1082E0911201F09183
:104780001301E05AFF4F1082E0911001F0911101E6
:10479000E05AFF4F81E08083E0910E01F0910F011C
:1047A000E05AFF4F1082E0910C01F0910D01E05AA8
:1047B000FF4F8083E0910A01F0910B01E05AFF4F17
:1047C0001082E0910801F0910901E05AFF4F108238
:1047D000E0910601F0910701E05AFF4F1082E0914D
:1047E0000401F0910501E05AFF4F1082E0910201AF
:1047F000F0910301E05AFF4F1082E0910001F09127
:104800000101E05AFF4F1082E091FE00F091FF009D
:10481000E05AFF4F8083E091FC00F091FD00E05AE8
:10482000FF4F808343C3E0911401F0911501E05ADA
:10483000FF4F1082E0911201F0911301E05AFF4FF7
:104840001082E0911001F0911101E05AFF4F1082A7
:10485000E0910E01F0910F01E05AFF4F1082E091BC
:104860000C01F0910D01E05AFF4F1082E0910A0116
:10487000F0910B01E05AFF4F1082E0910801F09196
:104880000901E05AFF4F1082E0910601F091070103
:10489000E05AFF4F1082E0910401F0910501E05AC7
:1048A000FF4F1082E0910201F0910301E05AFF4FA7
:1048B00081E08083E0910001F0910101E05AFF4F17
:1048C0008083E091FE00F091FF00E05AFF4F80836B
:1048D000E091FC00F091FD00E05AFF4F8083E6C2BA
:1048E000E0911401F0911501E05AFF4F1082E09120
:1048F0001201F0911301E05AFF4F81E08083E091B3
:104900001001F0911101E05AFF4F8083E0910E01F8
:10491000F0910F01E05AFF4F8083E0910C01F0917C
:104920000D01E05AFF4F1082E0910A01F0910B0156
:10493000E05AFF4F8083E0910801F0910901E05AAD
:10494000FF4F8083E0910601F0910701E05AFF4F8D
:104950008083E0910401F0910501E05AFF4F10823D
:10496000E0910201F0910301E05AFF4F1082E091C3
:104970000001F0910101E05AFF4F1082E091FE002A
:10498000F091FF00E05AFF4F1082E091FC00F0919F
:10499000FD00E05AFF4F108289C2E0911401F091AE
:1049A0001501E05AFF4F81E08083E0911201F09100
:1049B0001301E05AFF4F1082E0911001F0911101B4
:1049C000E05AFF4F1082E0910E01F0910F01E05A82
:1049D000FF4F8083E0910C01F0910D01E05AFF4FF1
:1049E0001082E0910A01F0910B01E05AFF4F108212
:1049F000E0910801F0910901E05AFF4F1082E09127
:104A00000601F0910701E05AFF4F1082E091040186
:104A1000F0910501E05AFF4F1082E0910201F09100
:104A20000301E05AFF4F8083E0910001F091010102
:104A3000E05AFF4F1082E091FE00F091FF00E05A33
:104A4000FF4F1082E091FC00F091FD00E05AFF4F13
:104A500080832CC2E0911401F0911501E05AFF4FC0
:104A600081E08083E0911201F0911301E05AFF4F41
:104A70001082E0911001F0911101E05AFF4F108275
:104A8000E0910E01F0910F01E05AFF4F8083E09119
:104A90000C01F0910D01E05AFF4F1082E0910A01E4
:104AA000F0910B01E05AFF4F1082E0910801F09164
:104AB0000901E05AFF4F8083E0910601F091070160
:104AC000E05AFF4F1082E0910401F0910501E05A95
:104AD000FF4F1082E0910201F0910301E05AFF4F75
:104AE0001082E0910001F0910101E05AFF4F8083B4
:104AF000E091FE00F091FF00E05AFF4F1082E0913C
:104B0000FC00F091FD00E05AFF4F8083CFC1E0919F
:104B10001401F0911501E05AFF4F1082E09112014B
:104B2000F0911301E05AFF4F1082E0911001F091D3
:104B30001101E05AFF4F1082E0910E01F0910F0138
:104B4000E05AFF4F1082E0910C01F0910D01E05A04
:104B5000FF4F1082E0910A01F0910B01E05AFF4FE4
:104B60001082E0910801F0910901E05AFF4F108294
:104B7000E0910601F0910701E05AFF4F1082E091A9
:104B80000401F0910501E05AFF4F81E08083E0913C
:104B90000201F0910301E05AFF4F1082E091000101
:104BA000F0910101E05AFF4F1082E091FE00F09178
:104BB000FF00E05AFF4F1082E091FC00F091FD00F1
:104BC000E05AFF4F108272C1E0911401F09115017B
:104BD000E05AFF4F81E08083E0911201F0911301D0
:104BE000E05AFF4F1082E0911001F0911101E05A5C
:104BF000FF4F1082E0910E01F0910F01E05AFF4F3C
:104C00008083E0910C01F0910D01E05AFF4F10827A
:104C1000E0910A01F0910B01E05AFF4F1082E09100
:104C20000801F0910901E05AFF4F1082E09106015E
:104C3000F0910701E05AFF4F8083E0910401F09169
:104C40000501E05AFF4F1082E0910201F09103014B
:104C5000E05AFF4F8083E0910001F0910101E05A9A
:104C6000FF4F1082E091FE00F091FF00E05AFF4FED
:104C70008083E091FC00F091FD00E05AFF4F10822C
:104C800015C1E0911401F0911501E05AFF4F108217
:104C9000E0911201F0911301E05AFF4F1082E09170
:104CA0001001F0911101E05AFF4F1082E0910E01C6
:104CB000F0910F01E05AFF4F1082E0910C01F0914A
:104CC0000D01E05AFF4F1082E0910A01F0910B01B3
:104CD000E05AFF4F1082E0910801F0910901E05A7B
:104CE000FF4F81E08083E0910601F0910701E05AD7
:104CF000FF4F8083E0910401F0910501E05AFF4FDE
:104D00001082E0910201F0910301E05AFF4F1082FE
:104D1000E0910001F0910101E05AFF4F1082E09113
:104D2000FE00F091FF00E05AFF4F1082E091FC007E
:104D3000F091FD00E05AFF4F1082B8C0E0911401DD
:104D4000F0911501E05AFF4F81E08083E09112015C
:104D5000F0911301E05AFF4F8083E0911001F09130
:104D60001101E05AFF4F8083E0910E01F0910F0195
:104D7000E05AFF4F8083E0910C01F0910D01E05A61
:104D8000FF4F8083E0910A01F0910B01E05AFF4F41
:104D90008083E0910801F0910901E05AFF4F808380
:104DA000E0910601F0910701E05AFF4F8083E09106
:104DB0000401F0910501E05AFF4F8083E091020168
:104DC000F0910301E05AFF4F8083E0910001F091E0
:104DD0000101E05AFF4F8083E091FE00F091FF0057
:104DE000E05AFF4F8083E091FC00F091FD00E05A13
:104DF000FF4F80835BC0E0911401F0911501E05AF0
:104E0000FF4F1082E0911201F0911301E05AFF4F21
:104E10001082E0911001F0911101E05AFF4F1082D1
:104E2000E0910E01F0910F01E05AFF4F1082E091E6
:104E30000C01F0910D01E05AFF4F1082E0910A0140
:104E4000F0910B01E05AFF4F1082E0910801F091C0
:104E50000901E05AFF4F1082E0910601F09107012D
:104E6000E05AFF4F1082E0910401F0910501E05AF1
:104E7000FF4F1082E0910201F0910301E05AFF4FD1
:104E80001082E0910001F0910101E05AFF4F108281
:104E9000E091FE00F091FF00E05AFF4F1082E09198
:104EA000FC00F091FD00E05AFF4F10820E94980133
:104EB00008950F931F93CF93DF93FC0160816623C6
:104EC00071F08C010F5F1F4FC1E0D0E0CE010E9456
:104ED0006C022196F80161918F016111F7CFDF918A
:104EE000CF911F910F9108958F929F92AF92BF9291
:104EF000CF92DF92EF92FF920F931F93CF93DF93A6
:104F0000CDB7DEB727970FB6F894DEBF0FBECDBF83
:104F1000C62ED72EE82EF92E80E8C81686E9D806C8
:104F200088E9E806F1044CF00F2EFFE7CF2EF6E9F2
:104F3000DF2EF8E9EF2EF12CF02D91ECC9169DEB48
:104F4000D90690EFE9069FEFF9060CF4D2C0FE01F6
:104F5000319687E0DF011D928A95E9F7BAE0CB161A
:104F6000D104E104F10444F1E4E6CE16D104E104F5
:104F7000F10444F1F8EECF16F3E0DF06E104F104AA
:104F80003CF180E1C81687E2D806E104F10434F16F
:104F900090EAC91696E8D90691E0E906F1041CF1F9
:104FA000A0E4CA16A2E4DA06AFE0EA06F1040CF1C6
:104FB00088248394912C21C00F2EF7E08F2E912C02
:104FC000F02D1BC00F2EF6E08F2E912CF02D15C06A
:104FD0000F2EF5E08F2E912CF02D0FC068948824B1
:104FE00082F8912C0AC00F2EF3E08F2E912CF02D19
:104FF00004C06894882481F8912CFF200CF48DC0A3
:105000005A01C701B60120E432E44FE050E00E94AB
:10501000BC29122F2983C701B60120EA36E841E0F6
:1050200050E00E94BC29022F110F812F880F880F9A
:10503000180F822F811B8A83C701B60120E137E256
:1050400040E050E00E94BC29122F000F802F880FF3
:10505000880F080F822F801B8B83C701B60128EEB3
:1050600033E040E050E00E94BC29022F110F812F55
:10507000880F880F180F822F811B8C83C701B60100
:1050800024E630E040E050E00E94BC29122F000FDF
:10509000802F880F880F080F822F801B8D83C701F8
:1050A000B6012AE030E040E050E00E94BC29110F38
:1050B000812F880F880F180F211B2E836F838E017D
:1050C000080D191D6E01B8E0CB0ED11CA5014C1BBB
:1050D0005D0BFA0138977F01D8016D918D01605DFC
:1050E000C7018A0F9B1F0E946C020C151D05A1F7BA
:1050F00014C0FE01319687E0DF011D928A95E9F721
:105100000F2EFFE7CF2EF6E9DF2EF8E9EF2EF12C78
:10511000F02D88248394912C73CF27960FB6F894A2
:10512000DEBF0FBECDBFDF91CF911F910F91FF90DA
:10513000EF90DF90CF90BF90AF909F908F900895A9
:10514000CF92DF92EF92FF920F931F93CF93DF9353
:1051500000D000D01F92CDB7DEB76C01DE011196F2
:1051600095E0FD0111929A95E9F78B9A939AFFEFDA
:1051700020E782E0F15020408040E1F700C00000CD
:105180009398AFE9BCE81197F1F700C00000939A3B
:105190008B98BAE6BA95F1F700C0839957C0E5ED50
:1051A000EA95F1F70000839B53C0F5EDFA95F1F70E
:1051B00000008E010F5F1F4F7E0126E0E20EF11C02
:1051C000E1E0F0E047E050E090E029EC30E0839946
:1051D00004C021503109D9F73DC080E58A95F1F727
:1051E000839B08C09F01042E02C0220F331F0A9424
:1051F000E2F7922B29EC30E0839B04C02150310967
:10520000D9F72AC04150510900F7D8019D938D016B
:10521000EA16FB06B9F68B9A939ABFEFE0E7F2E045
:10522000B150E040F040E1F700C0000029813B812F
:105230008A81820F830F9C81890F9D8189130EC003
:10524000D6013C93FB01208380E009C08FEF07C0AB
:105250008FEF05C08FEF03C08FEF01C08FEF0F906E
:105260000F900F900F900F90DF91CF911F910F91A2
:10527000FF90EF90DF90CF9008950E94A0280895AE
:10528000CF93DF9300D0CDB7DEB70E9424010E94F8
:10529000D8000E94980119821A820F2EF3E2EF2E95
:1052A000F12CF02D0CE310E0BE016E5F7F4FCE01BC
:1052B00001960E943D290E94F7018BEE90E00E942A
:1052C00059276981062E000C770B880B990B46E055
:1052D00050E00E947427898127E08202C0011124D6
:1052E000B7010E94A829CB010E9402020E949801E6
:1052F0008FEF9DE329E4815090402040E1F700C00A
:1053000000000E94F70183EF90E00E9459276A8114
:10531000062E000C770B880B990B46E050E00E949C
:1053200074278A8127E08202C0011124B8010E94FB
:10533000A829CB010E9402020E9498018FEF9DE3F1
:1053400029E4815090402040E1F700C00000ACCF3C
:1053500097FB072E16F4009407D077FD09D00E9422
:10536000E12907FC05D03EF4909581959F4F089563
:10537000709561957F4F0895052E97FB1EF400945C
:105380000E94D32957FD07D00E94F52907FC03D0BE
:105390004EF40C94D32950954095309521953F4F6C
:1053A0004F4F5F4F089590958095709561957F4F11
:1053B0008F4F9F4F0895EE0FFF1F0590F491E02D42
:1053C0000994AA1BBB1B51E107C0AA1FBB1FA6174C
:1053D000B70710F0A61BB70B881F991F5A95A9F79E
:1053E00080959095BC01CD010895A1E21A2EAA1BCB
:1053F000BB1BFD010DC0AA1FBB1FEE1FFF1FA21785
:10540000B307E407F50720F0A21BB30BE40BF50B81
:10541000661F771F881F991F1A9469F7609570950A
:10542000809590959B01AC01BD01CF010895F89442
:02543000FFCFAC
:10543200010101010101010101010101010101015A
:10544200010101010101010101010101010101014A
:10545200010101010101010101010101010101013A
:10546200010101010101010101010101010101012A
:10547200010101010101010101010101010101011A
:10548200010101010101010101010101010101010A
:1054920001010101010101010101010101010101FA
:1054A20001010101010101010101010101010101EA
:1054B2000000000000000001000100544D502020B7
:0C54C20020430048554D2020202500000C
:00000001FF
